{
  "contractName": "MyWallet",
  "abi": [
    {
      "inputs": [],
      "payable": false,
      "stateMutability": "nonpayable",
      "type": "constructor"
    },
    {
      "payable": true,
      "stateMutability": "payable",
      "type": "fallback"
    },
    {
      "constant": true,
      "inputs": [],
      "name": "contractBalance",
      "outputs": [
        {
          "internalType": "uint256",
          "name": "",
          "type": "uint256"
        }
      ],
      "payable": false,
      "stateMutability": "view",
      "type": "function"
    },
    {
      "constant": false,
      "inputs": [
        {
          "internalType": "address payable",
          "name": "_to",
          "type": "address"
        },
        {
          "internalType": "uint256",
          "name": "_value",
          "type": "uint256"
        }
      ],
      "name": "sendFromContractTo",
      "outputs": [],
      "payable": false,
      "stateMutability": "nonpayable",
      "type": "function"
    },
    {
      "constant": false,
      "inputs": [],
      "name": "deposite",
      "outputs": [],
      "payable": true,
      "stateMutability": "payable",
      "type": "function"
    }
  ],
  "bytecode": "0x608060405234801561001057600080fd5b50336000806101000a81548173ffffffffffffffffffffffffffffffffffffffff021916908373ffffffffffffffffffffffffffffffffffffffff160217905550610229806100606000396000f3fe6080604052600436106100345760003560e01c80638b7afe2e14610036578063a50ec32614610061578063fa519c5a1461006b575b005b34801561004257600080fd5b5061004b6100c6565b6040518082815260200191505060405180910390f35b6100696100ce565b005b34801561007757600080fd5b506100c46004803603604081101561008e57600080fd5b81019080803573ffffffffffffffffffffffffffffffffffffffff169060200190929190803590602001909291905050506100d0565b005b600047905090565b565b6000809054906101000a900473ffffffffffffffffffffffffffffffffffffffff1673ffffffffffffffffffffffffffffffffffffffff163373ffffffffffffffffffffffffffffffffffffffff1614610175576040517f08c379a00000000000000000000000000000000000000000000000000000000081526004018080602001828103825260348152602001806101c16034913960400191505060405180910390fd5b8173ffffffffffffffffffffffffffffffffffffffff166108fc829081150290604051600060405180830381858888f193505050501580156101bb573d6000803e3d6000fd5b50505056fe6a75737420636f6e7472616374206f776e65722063616e207472616e73666572206d6f6e65792066726f6d20636f6e7472616374a265627a7a7231582035b8fbce821e89802e22134723f5ddc665998d306c1763aaba0fe6b3a15c6d2864736f6c63430005100032",
  "source": "pragma solidity^0.5.0;\r\n\r\ncontract MyWallet {\r\n    address payable owner;\r\n//    mapping (address=>uint256) balances\r\n    constructor() public {\r\n        owner=msg.sender;\r\n    }\r\n    function contractBalance() view external returns(uint256) {\r\n        return address(this).balance;\r\n    }\r\n    function sendFromContractTo(address payable _to,uint256 _value) external {\r\n        require(msg.sender==owner,\"just contract owner can transfer money from contract\");\r\n        _to.transfer(_value);\r\n    }\r\n    function deposite() external payable {}\r\n    function () payable external {}\r\n}",
  "sourcePath": "D:/dapp/reactbox/contracts/MyWallet.sol",
  "compiler": {
    "name": "solc",
    "version": "0.5.16+commit.9c3226ce.Emscripten.clang"
  },
  "schemaVersion": "3.4.1",
  "updatedAt": "2021-07-07T13:50:42.847Z",
  "networkType": "ethereum",
  "devdoc": {
    "methods": {}
  },
  "userdoc": {
    "methods": {}
  }
}